:02000004C0DE5C
:1000000010B5044662B607F06BFF0CB907F080FD2F
:10001000002010BD70B58AB00C4605466846202108
:10002000164608F075FC14B9012007F0EFFE142EF7
:100030000AD3402001210990681C6D46089008A849
:100040002A4607F0AFFE08B1002006E005F10C01DA
:100050002046142208F052FC01200AB070BD1FB5E2
:10006000044610B9012007F0D1FE2078E02827D1FE
:1000700000200390CDE901006078402823D00428B7
:1000800031D0052839D006284AD0202853D021283D
:100090005FD0222866D023286CD0302873D0312836
:1000A0007ED0032840F08980A078002840F0978017
:1000B000E078002840F09380BDE81F4000F053B97D
:1000C0004FF4DC408DE0E07840F08001802940F082
:1000D0008680A168002900F0898000F091F801A8CD
:1000E00000F058F979E0A078002878D1E07800286D
:1000F00075D1BDE81F4000F0CFB8A17801296ED8B6
:10010000E07800286BD1A06800286FD0019020799A
:100110000029029018BF012101A800F0D1F85CE08D
:10012000A17800294CD0032959D8E07840F080020A
:10013000802A49D053E0E07840F0800180294ED1F8
:10014000A168002952D000F05BF801A800F00CFA79
:1001500043E0E078002842D1A07804B0BDE8104028
:1001600000F020BBA078D0BBE078C0BBBDE81F404A
:1001700000F07CBCA068C8B301902079029001A86F
:1001800000F048FB29E0A07848BBE07838BBA068C5
:1001900060B301902079029001A800F05AF91CE0A8
:1001A000A078E0B9E078D0B9A068F8B101902079E2
:1001B000029001A800F096F90FE04FF4DA4010E049
:1001C000E07880280BD18020A2687AB10192227950
:1001D0000292C20901A800F0ADFB04B010BD46F6C2
:1001E000862004B0BDE8104000F003B846F6872032
:1001F000F7E780B502460020002107F049FC80BDEA
:1002000040B222790191A178C0B20292C20970472E
:10021000BFB507F01FFC00F0C9FD1B484FF4367155
:10022000484408F083FB1A48784408F081F9807844
:1002300001280DD001208DF802000020ADF800004B
:100240001448784408F074F96946032208F0A0F9CC
:100250000E4D01AC07F006FC002814D4024609EB51
:100260000501204607F07BFC30B12046FFF7F7FE82
:10027000B0F1FF3FEEDC06E00020002146F68722C9
:1002800007F006FCE6E7BFBD00000000010F00001C
:10029000D4930000BA930000F8B50848784408F0F9
:1002A00047F900214FF4104203910321CDE90101E8
:1002B00001A8012107F0ECFB04B080BD0B8C00000D
:1002C000F0B585B0234F0C4605464FF4367109EB67
:1002D0000706304608F02AFB002006F5357109F8BC
:1002E000070086F8A802284607F080F908B309EB52
:1002F000070090F8D42200F52B71284607F0C9F9C1
:10030000B8B109EB07000021052290F8D432CDE9FD
:100310000221049100F1490500F1080600F52B7255
:1003200000202121CDE9006507F074FA40B180B2C8
:1003300001E046F6872005B0BDE8F04000F00CB8BB
:10034000002C05B0BDE8F04008BF00F0FFBB00F096
:1003500011BE00BF0000000080B502460020002151
:1003600007F096FB80BDF8B5002001214FF4104244
:100370008DF802008DF80100039003208DF8031022
:10038000012102900DF10100019001A807F080FB0E
:1003900004B080BDF0B585B00029284906BF00250E
:1003A00029F8015039F801501446D0E90121561AB4
:1003B000B2B25319B3F5E07F39D8214F006809EB89
:1003C000070301442B44184608F098FAA8191B4E5D
:1003D00029F8060014B14FF410402AE080B2B0F5BD
:1003E000E07F24D109EB070403F07CFC01462046A2
:1003F00002F0FEFD054620464FF4E07108F096FA43
:100400000020691E4FF41042B1FA81F129F806006C
:1004100004900DF107004909029001208DF80710A2
:10042000039002A8012107F033FB05B0F0BD46F6AA
:10043000872005B0BDE8F04000F004B83E0600009B
:100440004006000080B502460020002107F020FB96
:1004500080BDF0B5BDB0D0E90121521A602A25D186
:100460000068441803F03EFC31AE05462146304694
:1004700003F06FFB04F1300125AC204603F069FB6B
:1004800001AF314622462B46384602F06DF8384619
:10049000294602F0C1F8002818BF01208DF803009A
:1004A0000DF1030000F00FF83DB0F0BD3DB0BDE828
:1004B000F04000F000B880B50020002146F6872209
:1004C00007F0E6FA80BDF8B50021019001204FF455
:1004D00010420391029001A8012107F0D9FA04B05B
:1004E00080BD00002DE9F041FAB0D0E90121521A97
:1004F000C02A31D10068461803F0F4FB194D0DF500
:10050000C4780446314640467D44A84706F1300190
:1005100008F13000A8474AAF06F160013846A84705
:1005200006F1900107F13000A84702AE41463A4675
:100530002346304602F00EFB3046214602F05CFBBB
:10054000002818BF01208DF807000DF10700FFF704
:10055000BAFF7AB0BDE8F0817AB0BDE8F041FFF7AC
:10056000AABF00BF473600002DE9F04DADF58B6DF9
:1005700005467D481446484411B1B0F8600304E0D4
:1005800040F2663108F0C4F900206A681118B1F52C
:10059000907F00F2E080744E2968AB6809EB060793
:1005A0001944384408F0AAF9B7F86003A988084448
:1005B000A7F8600314B14FF41040CEE080B2B0F55C
:1005C000907F40F0C88009EB060403F08BFB674D79
:1005D0000DF1080A0746214650467D44A84792AED1
:1005E00004F130013046A8470DF55A7B514632469A
:1005F0003B46584601F0B8FF04F160015046A84759
:100600000AF1300804F190014046A847FEAE04F11B
:10061000C0013046A84704F1F00106F13000A847B8
:1006200092AD514632463B46284602F093FA504678
:1006300059462A463B4600F065FE3B6B4C4D0DF596
:100640007E7B51463A4658467D44A84704F5907053
:1006500059460190474E7E44B0473B6B5846414651
:100660003A46A84704F5A8705946B0473B6B0AF1D3
:10067000600100F0CBF804F5C0705946B0473B6B01
:100680000AF1900100F0C2F804F5D8705946B0475D
:100690003B6B0AF1C00100F0B9F804F5F07059465F
:1006A000B0473B6B0AF1F00100F0B0F804F50470BC
:1006B0005946B0473B6B0AF5907100F0A7F804F576
:1006C00010705946B0473B6B0AF5A87100F09EF8D0
:1006D00004F51C705946B0473B6B0AF5C07100F039
:1006E00095F804F528705946B0473B6B0AF5D87168
:1006F00000F08CF804F534705946B0473B6B0AF5AE
:10070000F07100F083F804F540705946B0473B6B38
:100710000AF5047100F07AF804F54C705946B047B8
:10072000154D50464FF410717D44A847DAA890212A
:10073000A84792A84FF49071A8470120FA21FA2502
:1007400084F86403019800F020F8A4F862530DF5D2
:100750008B6DBDE8F08D46F687200DF58B6DBDE8FD
:10076000F04D00F00BB800BFD80200007535000056
:10077000093C0000293500000182000080B50246D6
:100780000020002107F084F980BDF8B5002201ABFC
:1007900007C301A801214FF4104207F079F904B012
:1007A00080BD0000B0B5184A09EB020191F864134E
:1007B00051B178B109EB0200B0F86203B0F5107FD7
:1007C0000DD346F6862001E046F68510BDE8B04020
:1007D000FFF7D4BF09EB02010020A1F86203C0F5C6
:1007E000107409EB02052844A1B2FA2928BFFA24A3
:1007F000A1B200F59070FFF7C8FFB5F8621321446D
:10080000A5F86213B0BD00BFD802000058463A46B2
:10081000284700002DE9F04DADF5BE6D4168402937
:1008200065D1056803F05EFA04460DF5A36630460F
:10083000214601F07DFEFEAF2146384602F05CF90C
:100840000DF55A7831462A4620230094404602F09E
:10085000CFF8009405F1200292AD394620232846B6
:1008600002F074FB02AE41462A462346304600F0B1
:1008700049FD06F5F070DFF8B880CDF8A8650DF5F4
:10088000B56B0DF5B86ACDF8BC0506F5C070CDF8AE
:10089000B80506F59070CDF8B40506F1C000CDF8A6
:1008A000B00506F160000026CDF8AC0509EB0800A4
:1008B00000F59075062E1FD05BF82670236B50460E
:1008C0002246394603F0C6FC2846514603F059F942
:1008D000236B07F130015046224603F0BBFC05F1C3
:1008E0003000514603F04DF960350136E2E7002053
:1008F000002146F6872215E009EB080001210022BD
:1009000080F86413FA21CDF8C8254FF41042A0F8FE
:10091000621300F59070CDF8C4150121CDF8C00523
:100920000DF5B86007F0B4F80DF5BE6DBDE8F08DBB
:10093000D802000070B586B0464E044691B109EB6E
:10094000060090F8A80201282CD109EB06001546F4
:100950006268D0F808021118B1F5FF7F25D94BF273
:10096000040039E009EB06054FF43671284607F01C
:10097000DDFF002005F5357109F80600012085F836
:10098000A802204606F032FE48B109EB060090F8B6
:10099000D42200F52B71204606F07BFEB8B946F64E
:1009A000872019E04BF2070016E009EB0601084426
:1009B00000F10801204606F096FE58B109EB060149
:1009C0006268D1F808021044C1F808024DB14FF432
:1009D000104001E04BF2050006B0BDE8704000F0A9
:1009E0003DB80021CDE9020109EB060000F1080144
:1009F000019100F5047101A800F0F8F8012814D164
:100A0000012009F8060009EB0600D0F8081200F5ED
:100A10000E72059100F10801049104A8012107F06C
:100A2000C1F940B14BF2060001E04BF2050000F0C5
:100A300015F806B070BD09EB0600D0F82C02064987
:100A4000794407F0B7FF10B100F0B5FBF1E700F013
:100A5000AFFBEEE7000000009A81000080B502467F
:100A60000020002107F014F880BD00002DE9F04DB2
:100A7000ADF5876D03F036F90446D8AD284621461A
:100A800001F056FD90AE2146304602F035F86F4633
:100A9000294632462346384600F034FC07F5F0700C
:100AA000DFF8A48000260DF57C7B0DF5816ACDF87A
:100AB000040407F5C070CDF8000407F59070FF90AE
:100AC00007F1C000FE9007F16000CDE9FC7009EB72
:100AD000080000F59075062E1AD05BF82670236B7F
:100AE00050462246394603F0B5FB2846514603F0EE
:100AF00048F8236B07F130015046224603F0AAFB69
:100B000005F13000514603F03CF860350136E2E76C
:100B100009EB08000121002280F86413FA21CDF8C6
:100B200010244FF41042A0F8621300F59070CDF835
:100B30000C140121CDF808040DF5816006F0A8FF22
:100B40000DF5876DBDE8F08DD8020000B0B59AB004
:100B500041200DF1050441228DF805000B4809EBF9
:100B60000005601C05F1080107F0C8FE202005F112
:100B7000490120228DF8470004F1430007F0BEFE32
:100B80002046632100F004F81AB0B0BD0000000058
:100B9000F8B5002201AB07C301A801214FF41042B0
:100BA00006F076FF04B080BDF0B593B00DF10204FD
:100BB0004921651C284607F0ABFE0B4809EB0007EE
:100BC000284697F8A06207F5167132468DF8026044
:100BD00007F094FE97F8A11230194170B11C20461D
:100BE000FFF7D6FF13B0F0BD0000000070B50D4652
:100BF000044610B9012007F009F915B9012007F0E2
:100C000005F96068B0F5FF7F01D9F9204BE0204677
:100C10002946002206F000FD30B32068A168084490
:100C20001421A861204606F0D6FCF8B105F10801B0
:100C300020460022002606F0EFFCC8B105F1200195
:100C40002046C5E9046606F007FD296A90B9686A7E
:100C50005FEA50004FEA31020023D2F1E80273EB61
:100C6000000007D2FC201EE0FF201CE0FE201AE05E
:100C7000FD2018E02068A2681044E861204606F0D4
:100C8000AAFC68B105F11C030DCB00F00EF848B1C9
:100C9000D4E901126FF006008A4208BF012002E089
:100CA000FB2000E0FA2040B270BDF8B51C461546A6
:100CB000064610B9012007F0A9F8002000230246DB
:100CC000401B194673EB040006D2B756501C41F185
:100CD0000003B7F1FF3FF2DC0020521BA14128BF07
:100CE0000120F8BD08B1FFF731BF46F6851000F0CE
:100CF00000B880B502460020002106F0C9FE80BD84
:100D00002DE9F0418CB078B3DFF894800220002503
:100D10002027032240F201640DF12C0C0DF1280E66
:100D20000B9509F8080048200A9009EB080090F894
:100D3000D43200F50E7100F51676CDE9004200F5CB
:100D40002B7200200895CDE906C5CDE902172121B7
:100D5000CDE9046E06F092FD88B14BF2080009F867
:100D60000850FFF7C6FF17E00D48002109F80010F2
:100D700046F685100CB0BDE8F041FFF7BABF0A99FE
:100D800009EB080080F8A0129DF82C1001F0010179
:100D900080F8A112FFF708FF0CB0BDE8F08100BF9A
:100DA00000000000FF2007F05BFC0000BFB5194CFD
:100DB00017487C4409EB000500F0D8F8142169734A
:100DC0001549164A79447A44C5E901210078287307
:100DD00000F0CCF8152169761149124A79447A4419
:100DE000C5E904210021407828760F480F4A104BAE
:100DF00078447A447B44CDE90032CDE902100022E8
:100E0000FF230C480C497844794404F07DFEBFBDB3
:100E1000000800004A880000087F0000768000007B
:100E2000727F0000B97D0000B1FFFFFFF680000077
:100E3000E8800000A18000000B7C0000BFB5224CC0
:100E4000152809F8042011D014282AD109EB04052B
:100E50001E4C7C4400F08AF80078B0FA80F040091B
:100E600028738DF80F0000F081F815E018487844D9
:100E700007F05EFB4078A8B109EB0405154C7C44F3
:100E800000F074F84078B0FA80F0400928768DF8C8
:100E90000F0000F06BF801300DF10F01012207F097
:100EA00077FBBFBD0C480D4978447944CDE900106B
:100EB0000B480C490C4A0D4B784479447A447B44E6
:100EC00005F09AFABFBD00BF00080000AA87000025
:100ED0008E8700007E87000045000000CA7E00006B
:100EE000B27C0000DD7C0000997D0000867F000060
:100EF000B0B586B0A8B1174C15487C4409EB000585
:100F000000F034F84078B0FA80F0400928768DF887
:100F1000170000F02BF801300DF11701012207F046
:100F200037FB0B48002119F800300B480B4A0C4CDA
:100F300078447A447C44CDE90042CDE90210002295
:100F4000084809497844794404F0DEFD06B0B0BD94
:100F5000000800000287000071FEFFFFB67F00005E
:100F6000A87F0000637F0000CD7A0000204607F0D4
:100F7000DFBA000070B588B0224E09EB060119F8FF
:100F8000060091F8A81208432AD11F4D2B2109EB26
:100F9000050007F0BDFC03AC1421204607F0B8FCA7
:100FA00009EB0600214614220830FFF733F808B396
:100FB00009EB050203A814212B2306F009FD0130DB
:100FC00018D01248002400217844CDE9004009EBF4
:100FD00005000F4A0F4B7A447B4404F00FFF0EE0EC
:100FE000002009F806004BF2070008B0BDE8704089
:100FF00000F012B84BF2020000F00EF80446204652
:1010000008B070BD000000001C0800005D0000007A
:10101000B77B0000D37E000080B50246002000218F
:1010200006F036FD80BD000010B50446FFF75AFEFD
:101030000720002C18BF062002497944BDE8104063
:1010400005F0CEB86FFDFFFFF0B58DB0434F0446FD
:1010500009EB070090F8A80201285DD119F80700F4
:10106000012859D13E4E1E2109EB0600143007F02D
:101070004FFC05AD1E21284607F04AFC09EB07008E
:101080001E21D0E9862303200090284606F059FC53
:1010900000284BD0009509EB06051E211E23314A7E
:1010A00005F114007A4406F025FF54352B2128461B
:1010B00007F02EFC09EB070014212A462B23D0F859
:1010C000280206F085FC013033D0274909EB0600E1
:1010D00000250246794442F8341F49F806200222CE
:1010E0002249027200F15402C5727944C0E911121A
:1010F00000F1140181631E48784414B3CDE9025015
:10110000CDE9005509EB060100201A4A1A4B7A4432
:101110007B4404F061FE11E0002009F807004BF267
:1011200007000DB0BDE8F04000F02CB84BF2030012
:1011300001E04BF2020000F025F8054628460DB00C
:10114000F0BD0290CDE9005509EB060100200B4AE5
:101150000B4B7A447B4404F07FFDEFE70000000076
:1011600048080000827D0000697B0000457D00008A
:10117000990000007F7A00008F7A00003B7A00001F
:101180004B7A000080B502460020002106F080FC6A
:1011900080BD000010B50446FFF7B2FD034984F09E
:1011A00001007944BDE8104005F01AB807FCFFFFC4
:1011B0000120FFF749BF0020FFF746BF2DE9F04DA2
:1011C000ADF5356D0DF51167039014460E463846A2
:1011D00000F0FDF8474D3846394622467D44A84781
:1011E000AA460DF5DA6531462246284600F001FA96
:1011F000414E0DF1100839462A46234640467E44AA
:10120000B0473E4F28464146022223467F4402977C
:10121000B847404641462A462346B0470DF511657A
:1012200041462246284600F0D1FB354B0DF5DA67E2
:101230002946224638467B44019398470DF592652E
:1012400039462246284600F075F80DF5147804A9B1
:10125000404600F0BCF8404641462246D04738465A
:10126000394642462346B04700F0A3F8384600F01E
:101270009CF8DDF804B0284639462246D847404657
:1012800029462246D84700F094F8404641463A465F
:101290002346B04700F08DF8DDF808A038463946FF
:1012A00003222346D0472846294602222346D04718
:1012B000384600F07AF8284641462246D847284664
:1012C00029460DF511622346B0472846294604AA4F
:1012D0002346B047384600F068F8284641460122C8
:1012E0002346D047039800F060F80DF5356DBDE852
:1012F000F08D00BF130200000F0200005504000033
:10130000E3000000B0B51C46054601F0E9FF2846A1
:1013100029462246BDE8B040FFF750BFB0B514469D
:10132000054600F007F8284629462246BDE8B040A9
:1013300000F04CBBF8B514460E46054600F046FBDF
:10134000104F28463146022223467F44B84728469C
:10135000314603222346B847284631460922234610
:10136000B8472846314620222346B847284631460A
:101370000F222346B847284629462246BDE8F840B2
:1013800000F037B83B00000070B515460A4601462C
:101390001C46064600F03CF835B130463146224640
:1013A00000F014FB013DF7E770BD39462A4623469D
:1013B0003047384639462246504710B5044600F0BB
:1013C0008DFD04F59070BDE8104000F077BD80B54C
:1013D00000F0C3FB80BD70B50C46054600F092FDE1
:1013E000064605F5907004F5907100F08BFD3040D5
:1013F00070BD70B514460D46064600F07DFD06F53D
:10140000907005F590712246BDE8704000F0B0BDC7
:101410002DE9F04DADF5D96D01900DF5B5601D4686
:1014200016468B46234F7F44B8470BF5907406F55C
:1014300090780DF591602B4621464246B847BA4652
:10144000DAA81D4F594622462B467F44B84792AC36
:10145000314642462B462046B8474AAEDAA92246D4
:101460002B463046D0470DF5B568304631462B4601
:10147000424600F06DFD0DF59164304631462B4635
:10148000224600F065FD0DF1080A21462A46504625
:1014900000F05EFF019C414652462B462046B8476D
:1014A00004F59070314600F027FD0DF5D96DBDE8CB
:1014B000F08D00BF7B0B0000E30A00002DE9F04D2A
:1014C000ADF5B46D1F4C83460DF5906015460E4684
:1014D0007C44A04706F590770DF5587A2A46504689
:1014E0003946A0470DF5107831463A462B4640461E
:1014F00000F01EFD48AE41462A463046A0470DF595
:101500009067304631462B463A4600F021FD304682
:10151000314652462B4600F01BFD6C4651462A468A
:10152000204600F015FF5846394622462B4600F06B
:10153000FFFC0BF59070314600F0DEFC0DF5B46D4C
:10154000BDE8F08D3D0C00002DE9F04DADF5C16D0D
:10155000DDF82C5601900DF59D601F4616460C4691
:10156000009500F059FEDDF828A604F59078F2A861
:101570002B464146524600F0BDFE0DF52A7B214622
:1015800042462B46584600F0D3FC92AC39465246B0
:101590002B46204600F013FB00954AAF59463246D1
:1015A0002346384600F038FE0DF59D68384639462A
:1015B0002B46424600F0CCFCF2AE384639462B466C
:1015C000324600F0C5FC02AC31462A46204600F007
:1015D000BFFE019E414622462B46304600F0A8FC45
:1015E00006F59070394600F087FC0DF5C16DBDE839
:1015F000F08D2DE9F04DADF5B46D0DF59068824696
:1016000014460E46404600F083FD06F59077D8ADAF
:1016100022462846394600F07BFD284629462246C8
:1016200000F096FE0DF5107B41462A4623465846AB
:1016300000F08EFC48AD59462246284600F0A4FE34
:10164000504600F08EFA6E4639462246304600F08B
:101650008FFC0AF5907000F084FA0DF5B46DBDE8CA
:10166000F08D00002DE9F04DADF5906D0F4605466B
:10167000012A01DB042A04D32846394600F06DFA1A
:1016800096E1CD481E46079319F80000002840F067
:1016900029810DF57C78CDE9002731460C22029591
:1016A000404600F031FAD8AC204602F091FA012011
:1016B00021463246D890E4AD284602F041FA05F1C1
:1016C00030002146324602F03BFABC4901200DF5BC
:1016D000846A4944039108A9042800F0FC8004901E
:1016E0000846282100F01BFA08AA04984FF0010BC5
:1016F0000021CDF820B0814240D00691B0AC282125
:10170000204600F00CFA0BF10C012046059100F088
:1017100006FA0DF1200C0020214658451EDA5CF82F
:1017200020300022002500270C2F0DD051F8276013
:1017300058F82740B61845F100020025E4FB036283
:1017400041F827600137EFE7B0AB079E043103EBA8
:10175000800301301D6B2A441A63DEE7B0AC0599A3
:10176000204600F0E5F9834608A82146282200F02B
:10177000CBF908AA069904980131BCE70020282873
:101780000BD052F8201029B94FF0FF3142F8201049
:101790000130F4E7013942F8201000212727002FFB
:1017A0000FD452F8274006220023204607F0B4F851
:1017B00008AA062142F82700A0FB0101013F211AD7
:1017C000EDE71046282100F0B3F983468100B0A868
:1017D000069107F09DF86FF001000DF1200C00213B
:1017E000002200EB8B005A4515DA069B994212DA6B
:1017F000431C0CD45CF80130B0AF1D0A3D543D18B9
:101800001F0C6B701B0E05F8017C05F8023C0438B8
:1018100004310132E7E75046314600F0B1F90021CA
:1018200000270698814228DAB0A80D46072410F850
:1018300001B0B4F1FF3F1DDD7FB150465146324645
:1018400000F042FA2BFA04F0C0070FD05046514680
:10185000E4AA334600F0EEF907E02BFA04F0C007E3
:1018600006D05046E4A900F097F90127013CE0E7D3
:101870000027FBE72946691CD3E7524C98AD514637
:1018800028467C44A0474D4804994844C1EB0111C7
:1018900000EB41102946A0F5F070A04750462946BC
:1018A000A047602408A9B4F5F07F0DD050465146FA
:1018B00098AA334600F0BEF903985146204400F040
:1018C0006BF908A96034EEE7039800F5F070039017
:1018D0000498013000E73849029DDDE90027012026
:1018E00009F80100A2F10108D00705D108A839467E
:1018F00000F033F9079C26E0314E079C0DF1200AD9
:10190000394650467E442246B0470AF1600007F14E
:1019100060012246B0470AF1C00007F1C00122462B
:10192000B0470AF5907007F590712246B0470AF566
:10193000C07007F5C0712246B0470AF5F07007F590
:10194000F0712246B0471D481F4FC8EB08110DF13A
:101950002008234648447F4400EB411605F160000F
:1019600008F1600106F16002B84706F5907205F1D2
:10197000C00008F1C0012346B84705F5907008F58E
:10198000907132462346B84706F1C00205F5C07093
:1019900008F5C0712346B84706F5C07205F5F0702A
:1019A00008F5F0712346B8472846414600F0F4F8A0
:1019B0000DF5906DBDE8F08D680E0000C8080000C0
:1019C0000D03000013030000DB0200002DE9F04DC1
:1019D000ADF5AA6D484D0DF59267804614460E464A
:1019E00038467D44A84707F1600006F5C0710190B4
:1019F000A8470DF5747B06F590715846A8470BF182
:101A0000600006F1C0010390A8470DF5447A06F185
:101A100060015046A8470AF1600006F5F071029097
:101A2000A84794AF354D0DF59261224638467D4466
:101A3000A84764A859462246A84734AE51462246D4
:101A40003046A84706F1600104A8224600F0ACF930
:101A50001CAE2B4D39460DF59262234630467D442F
:101A6000A847AB46274D30463146324623467D4493
:101A7000A847404600F06DF86037019A304623468B
:101A80003946A84700F060F808F5C07000F061F82A
:101A900064AF3046524623463946D84700F054F8E2
:101AA00008F1600000F055F86037029A304623468E
:101AB0003946A84700F048F808F5F07000F049F8FA
:101AC00034AF039A304623463946D84700F03CF8F5
:101AD00008F1C00000F03DF804AF3046F4AA2346F8
:101AE0003946A84700F030F808F5907000F031F85A
:101AF0000DF5AA6DBDE8F08DB30100000F040000E4
:101B0000790100004D01000010B500239342A8BFE9
:101B100010BD51F8234040F823400133F6E700227E
:101B200000238B42A8BF704740F823200133F8E719
:101B300004380129BCBF0120704750F82120013929
:101B4000002AF6D0481C70473046314632462346BC
:101B5000284731463A46234628474FF4107206F08C
:101B6000CDBE31462A46234600F01CBA10B50446C5
:101B700002F02EF804F13000BDE8104002F028B861
:101B800010B564313022044606F0B8FE04F130008E
:101B9000BDE8104002F01CB880B5602206F0AEFE31
:101BA00080BD70B50C46054602F001F8064605F109
:101BB000300004F1300101F0FAFF304070BDF8B59B
:101BC0001C4615460E46074602F04CFA00F011F985
:101BD00001B0BDE8F04002F045BAF8B51C46154624
:101BE0000E46074602F0B8FA00F003F901B0BDE86E
:101BF000F04002F0B1BA70B514460D46064601F049
:101C0000ECFF06F1300005F130012246BDE87040DE
:101C100001F0E3BF70B5144630220D46064606F0CB
:101C20006DFE06F1300005F130012246BDE870403E
:101C300001F0D3BF2DE9F04DBEB00190186B1C46EA
:101C400016460F46009032A81D4D7D44A847206BD4
:101C5000AB4607F1300506F13008234629464246D7
:101C6000009026A8D8471AA800F0CBF80EAD314650
:101C700042462346284602F0F5F9206B0DF1080A8A
:101C80002A462346009050461AA9D8470D4D019E7A
:101C900032AF0DF198082346394642467D4430461E
:101CA000A847504651463A462346A84706F1300019
:101CB000514642462346A8473EB0BDE8F08D00BFDE
:101CC000C7200000B92400002DE9F04DA6B014464D
:101CD00001F130060DF1680805460F4640463246D0
:101CE000234602F0BFF90DF1380A39463246234641
:101CF000504602F031FA206B0DF1080B394632469E
:101D000023460090584602F005F8206B41465246A3
:101D100000F07CF805F1300059465A46234602F09F
:101D2000A1F926B0BDE8F08DF0B599B0136B0DAFF9
:101D3000064614460D46384602F08CF9236B05F131
:101D4000300101AD2246284602F084F9304600F009
:101D500058F819B0F0BD2DE9F041A6B01AAE05460D
:101D600014460F463046FFF7DFFF0DF138083146C5
:101D70002246404601F08AFF02AE07F130012246BA
:101D8000304601F02AFF206B3946424600F03EF80B
:101D9000206B314642462346009005F1300001F0A9
:101DA000B9FF26B0BDE8F0812DE9F04599B01446A1
:101DB00001F130070DF1340806460D4640463A461B
:101DC000234602F0C9F90DF1040A29463A46234692
:101DD000504602F047F930464146302206F08EFD6B
:101DE00006F130005146302206F088FD19B0BDE8FA
:101DF000F08507F1300006F1300105F1300223468D
:101E0000704739462A46234602F02CB923460090F3
:101E1000284601F07FBFF8B50746186B1C461546EB
:101E20000E460090384601F075FF206B06F1300138
:101E30002A462346009007F1300001F06BFFF8BD01
:101E40002DE9F04DE0B0834648A81B4D14460E46E0
:101E50007D44A84706F160070DF1C00A22465046AE
:101E60003946A8470DF1600831463A4623464046B8
:101E7000FFF7A5FE404641462246A8470BF1600603
:101E800048AF4146234630463A46FFF7A6FE304665
:101E9000314652462346FFF7A0FE6D465146224684
:101EA0002846FFF781FF584639462A462346FFF762
:101EB00086FE60B0BDE8F08D75FEFFFFB0B5064D43
:101EC00004467D44A84704F16000A84704F1C0001F
:101ED0002946BDE8B0400847A7FCFFFF10B50446FF
:101EE000FFF74EFE04F16000FFF740FE04F1C00072
:101EF000BDE81040FFF73ABE80B54FF4907206F08F
:101F0000FDFC80BDF8B5094F0C4605467F44B84737
:101F1000064605F1600004F16001B847064005F18E
:101F2000C00004F1C001B8473040F8BD93FCFFFF8A
:101F30002DE9F041054C00F0D4FA7C44A04700F0B4
:101F4000BFFA00F0C5FABDE8F041604781FCFFFF31
:101F50002DE9F041054C00F0C4FA7C44A04700F0A4
:101F6000AFFA00F0B5FABDE8F04160477DFCFFFF35
:101F7000F8B50B4F14460D4606467F44B84706F1A8
:101F8000600005F160012246B84706F1C00005F186
:101F9000C00122463B4601B0BDE8F040184700BFF3
:101FA00079FCFFFF2DE9F04DADF54A7D04920790D5
:101FB000B2A8544F1D4616460C467F44B84704F15C
:101FC000600B06F1600809949AA82B4659464246D0
:101FD000CDF80CB0CDF80880B847C03406F1C00A7F
:101FE0002B46069482A821465246CDF814A0B84745
:101FF00008976AA8444E594622462B467E44B0476D
:102000000DF5A47B414652462B465846B0473AACA4
:102010006AA95A462B46B246D84620460E46B847CD
:102020003A4F204621469AAA2B467F44B84720467D
:10203000214682AA2B46B847204621462A46BB465F
:10204000FFF7B2FE20462146B2AA2B46D047099997
:10205000039A30462B463446D047049E029A4046A7
:102060002B463146D04722AF2146089C42462B469C
:102070003846A047B2AA384639462B46CDF804B0B8
:10208000D847384639469AAA2B46D8470AAC82A97F
:102090002A462046FFF788FE3846394622462B4618
:1020A000D0476AA80999069A2B46D047059A404618
:1020B00031462B46D047DDF81CB06AA9089E42463F
:1020C0002B460BF1C0042046B047B2AA019E204621
:1020D00021462B46B0472046214682AA2B46B047D0
:1020E000204621469AAA2B46D04758463AA9FFF7E0
:1020F00053FD0BF160003946FFF74EFD0DF54A7DAB
:10210000BDE8F08D77FCFFFFBFFBFFFFADFBFFFFDE
:102110002DE9F04DADF5747D0290DCA83B4B1446E3
:102120000F467B440193984707F1600A0DF5C87884
:102130003946234640465246FFF77CFDC4A8344D3D
:102140004146424623467D44A847324E0DF1D00B0E
:1021500039465246234658467E440396B04707F117
:10216000C0085846594623464246A847ACA8019E97
:1021700059462246B0474CAF514642462346384660
:10218000FFF758FD0DF5147A39463A462346504676
:10219000A8470DF5F87B414622465846B0471CAE8D
:1021A000514622463046FFF7FFFD029F0DF55C7851
:1021B0003246234641463846A84704AE5946224691
:1021C0003046FFF7F1FD0DF5447A07F16000324625
:1021D00023465146A84707F1C0065146ACAA2346FC
:1021E0003046A8473046314694AA2346A847039D67
:1021F0003046314642462346A847304631465A4685
:102200002346A8470DF5747DBDE8F08DA3FBFFFFC5
:1022100075FAFFFF7FFAFFFF2DE9F04DADF52C7D3C
:10222000039094A8314CB49D9B4688461646009274
:102230007C442B460194A04708F160077CA85A46CD
:102240002B463946A0470DF5C87A08F1C0015A4619
:102250002B4650460291A047504651462A46FFF76A
:10226000A3FD4CA8224C94A952462B467C44A0477F
:102270000DF1D00A41463A462B465046A0471CAFC6
:1022800031465A462B463846A0470DF110085146B4
:10229000DDF804A03A462B464046D047404641462A
:1022A00094AA2B46FFF799FC0DF5F87B4046414672
:1022B0002B465A46FFF791FC039E0299009A2B4643
:1022C00006F1C0073846D047384639465A462B46AD
:1022D000A04730464CA9FFF75FFC06F1600041467D
:1022E000FFF75AFC0DF52C7DBDE8F08D01FAFFFFDC
:1022F0004FF9FFFF2DE9F04DB0B0144C0DF160081F
:102300000E468346C0311D46174640467C44A047D2
:10231000404641462A46FFF747FDEA4631463A46DF
:102320002B465046A0470BF1C00006F160013A462B
:102330002B46A04758464146FFF72EFC0BF16000A4
:102340005146FFF729FC30B0BDE8F08D25F9FFFFBD
:10235000F0B599B001AE0C460546C0313046FFF7E6
:1023600023FD084F05F1C00004F160017F44B84728
:1023700005F160002146B84728463146B84719B0F4
:10238000F0BD00BF29F8FFFF2DE9F04DADF59E6DC2
:1023900003900DF5926014468A46454D7D44A8474A
:1023A0000AF160010DF5866022468846A8470AF1C9
:1023B000C00BF4A822465946A847DCA83D4E51461A
:1023C000424623464546CDF808807E440196B047F4
:1023D000C4A851465A462346B0470DF52C782946E5
:1023E0005A4623464046B04794AF334D41462246B5
:1023F00038467D44A8472E46304D38460DF592614B
:102400003A4623467D44A8477CAFF4A92246384685
:10241000B04738463946DCAA2346A84764A80DF5DC
:102420008661C4AA2346A8470DF5987894AA019D11
:10243000514623464046A84734AF0DF5F87A594631
:10244000234638465246A8470DF1700B029964AAFC
:1024500023465846A847384639465A462346FFF78A
:10246000AEFB384639462246B047404641463A46DA
:102470002346FFF7A4FB04AE414622463046FFF751
:102480006AFC039F94A9324623463846A84707F1C1
:102490006000514632462346A84707F1C00064A9B0
:1024A00032462346A8470DF59E6DBDE8F08D00BF6E
:1024B00029F9FFFF67F8FFFFB3F9FFFFD3F7FFFF2D
:1024C00007F1600006F1600105F160024346204714
:1024D00007F1C00006F1C00105F1C0024346A44661
:1024E0007047984615460E4607467047B0B5074DEB
:1024F00004467D44A84704F13000A847012029463E
:10250000206304F16000BDE8B0400847DB1600001E
:10251000B0B58CB06D4604463021284606F0F8F977
:1025200004F16000294601F042FB0CB0B0BD000090
:10253000F0B599B00C460DAE0949054630467944D0
:1025400001F007FB01AF07493846794401F001FB70
:10255000284631463A46234600F006F819B0F0BD49
:10256000026A0000266A000070B515461A461C462D
:10257000064601F0E5FA06F130002946224601F050
:10258000DFFA06F1600004F164013022BDE870401A
:1025900006F0B4B92DE9F04DBEB0019132AE8246DD
:1025A000174602F160011A461C46304601F06EFBE8
:1025B0000DF19808236B31462246404601F04AFD52
:1025C000206B0DF1680B4146324600F056FA114D72
:1025D0007D44A847206B39464246234600900EAE04
:1025E0003046A847206B07F1300100F04AFA02AFED
:1025F0003846A847236B50463146224601F02AFE52
:10260000236B01983946224601F024FE3EB0BDE816
:10261000F08D00BF411700002DE9F045EDB00C46EC
:102620000746FFF775FF08B1012047E0236B254EF1
:102630000DF5C27807F13001224640467E44B0478E
:10264000236B55AD394622462846B047206B0DF521
:10265000927A29463A4623460090504601F05AFBAA
:10266000236B3DAD07F1600122462846B047236B3E
:1026700031AF294622463846B047206B39462A46B4
:102680002346009025AE304601F044FB01AD0E4FCD
:1026900031463246234628467F44B84719AE29467C
:1026A0002A4623463046B8470DAD514632462346AA
:1026B0002846B8474046294601F079FA6DB0BDE892
:1026C000F08500BF151A0000C919000070B5144646
:1026D00030220D46064606F011F906F1300005F1EC
:1026E0003001224601F079FA06F1600005F160013F
:1026F0003022BDE8704006F001B900002DE9F04D30
:10270000C0B08346084614460E46FFF701FF28B1C5
:10271000584640B0BDE8F04DFFF7E8BE06F1300185
:10272000236B0DF1D0082246029140463C4D7D447A
:10273000A847206BAA46314642462346009028AD62
:10274000384F28467F440397B847374F28462946D5
:102750002A4623467F44B847284629462A46234628
:10276000B847236B0DF1700834A92246CDF804A0B8
:102770004046D04700F07CF900F07AF900F078F993
:10278000236B10AD314622462846D0470DF1100A82
:1027900029462A4623465046B847284651462A46E7
:1027A0002346B847206B0BF1600A06F1600223460E
:1027B000009050460299039DA84750465146524604
:1027C0002346B8470DF1400A236B019D5846224627
:1027D0005146A847154E28AD5846594623462A4625
:1027E0007E44B047584659462A462346B04704AF70
:1027F00029465A4623463846B047206B0BF1300530
:102800003A465146234600902846039FB84728463B
:10281000294642462346B04740B0BDE8F08D00BF90
:1028200023190000CD1500000D19000075190000D6
:102830002DE9F04DADF5387D804608461C4617461B
:102840000E46FFF765FE10B14046394605E03846B2
:10285000FFF75EFE38B14046314600F016F90DF53F
:10286000387DBDE8F08D236B06F1600BACA82246E5
:10287000594601F0EFFB236B07F1600AA0A822463E
:10288000514601F0E7FB206B00F0FBF894A8564D91
:10289000ACA9CDF80CB07D44A847206B0DF5207B8A
:1028A000524623465946009088A8CDF808A0A8476C
:1028B000206B314600F0E5F87CA8A847206B39462C
:1028C0002346009070A8ACAAA847206B0DF5C87BE2
:1028D00006F1300100F0D1F888AAA847206B07F173
:1028E00030012346009058AF94AA01953846A84776
:1028F0000DF5987A70A97CAA2346504601F02CFC6D
:1029000040A839465A46234601F026FC34AF302110
:10291000384605F0FDFF5046394601F048F958B1F8
:1029200040A834A901F043F9002858D04046314668
:102930002246FFF7E3FE92E7236B28AE4CAD00F092
:10294000A7F8206B0DF1700BDDF804A031462A4684
:1029500000F093F8D047206B32462346009010AF2A
:102960007CA93846D047236B40A94046224601F057
:1029700071FB1E4E404641465A4623467E44B047B0
:1029800000F08BF800F089F804AD39464246234642
:102990002846B047206B08F130072A4623460090AE
:1029A000384640A9D047206B00F06BF864A9284650
:1029B000D047384639462A462346B047206B08F1AF
:1029C0006005234600904CA9039A2846D047206B07
:1029D000029A2946234600902846D0473FE74046C2
:1029E000FFF784FD3BE700BF7B140000D917000010
:1029F0002DE9FC4DCDE900230E460746FFF776FD95
:102A00000A9D4FF0000B4FF0000A01988345A8BFC4
:102A1000BDE8FC8D00984FF0070810F80B40B8F1A6
:102A2000FF3F22DDBAF1000F0FD0384639462A4663
:102A3000FFF764FE24FA08F0C00710D03846394684
:102A400032462B46FFF7F4FE07E024FA08F0C007F1
:102A500008D03846314600F018F84FF0010AA8F1C6
:102A60000108DCE74FF0000AF9E70BF1010BCCE7B6
:102A70004046414642462346384723460090584642
:102A800070475A46234600907047902205F036BFA3
:102A900022463046294601F0DDBA404641463A46D4
:102AA00023463047B0B5074D04467D44A84704F19E
:102AB0006000A84701202946206604F1C000BDE857
:102AC000B0400847BFF0FFFFC03000F000B870B55D
:102AD0008CB06D4604463021284605F019FF20468B
:102AE000294601F064F8064604F13000294601F059
:102AF0005EF830400CB070BD2DE9F041B0B08846B2
:102B000018AE0F490F4C0546304679447C44A04727
:102B10000D4906F130007944A0470C496F4638460C
:102B20007944A0470A4907F130007944A047284674
:102B300031463A46434600F00DF830B0BDE8F0812A
:102B40009664000043100000BA640000E0640000D6
:102B5000066500002DE9F0410F4E90461A461C46CE
:102B60000F4605467E44B04705F1300007F13001BD
:102B70002246B04705F1600041462246B04705F1C4
:102B8000900008F130012246B04705F1C00021460F
:102B9000BDE8F041FEF7F4BFD90F00002DE9F04D7C
:102BA000CAB00DF1C80801918246164602F1C00173
:102BB0001A461C464046FFF7CEF81AAF4146224659
:102BC0003846FFF781F80B4D0DF1080B39464246A8
:102BD000234658467D44A847504631463A46234648
:102BE000A847019806F160015A462346A8474AB013
:102BF000BDE8F08D5DF0FFFF2DE9F04DADF5587D9E
:102C000000F1C00705460C463846FFF760FF08B1E3
:102C1000012044E0244E0DF5407805F16001224684
:102C200040467E44B0470DF5287B2946224658464B
:102C3000B0470DF5107A59462A4623465046FEF70E
:102C4000F9FF78AD394622462846B04760AF29469D
:102C500022463846B04748AE39462A4623463046D3
:102C6000FEF7E8FF30AD314622462846FFF79CF8D4
:102C70000E4F6E4629462A46234630467F44B847C3
:102C80002846314632462346B84718AE51462A46B2
:102C900023463046B84740463146FEF782FF0DF5E1
:102CA000587DBDE8F08D00BFA3F0FFFF3FEFFFFFB1
:102CB0002DE9F04DFCB001F1C008824614460F46E4
:102CC0004046FFF704FF28B150467CB0BDE8F04D08
:102CD000FFF7E8BE07F160010DF5C87B22460291BF
:102CE0005846354B7B44039398474CAD334E394699
:102CF0005A46234628467E440196B047304E284621
:102D000029462A4623467E44B047284629462A4675
:102D10002346B0470DF1D00B64A9039D22465846C7
:102D2000A84700F057F900F055F900F053F91CA836
:102D300039462246A84704AF1CA9234638460A460E
:102D40000D46B047284639462A462346B0470AF181
:102D5000C00742460299DDF8048023463846C04742
:102D6000384639463A462346B047039B50462946E3
:102D700022469847134E4CAD5046514623462A46AC
:102D80007E44B047504651462A462346B04704AFDA
:102D90002946524623463846B0470AF160051CA929
:102DA0003A4623462846C047284629465A462346DF
:102DB000B0477CB0BDE8F08DE1EFFFFF3BEFFFFFD8
:102DC000B5EEFFFF57EEFFFF2DE9F04DADF5A96D14
:102DD00001F1C00882461C4615460F464046FFF7E3
:102DE00076FE10B15046294607E005F1C00B584663
:102DF000FFF76DFE38B15046394600F0E7F80DF5A3
:102E0000A96DBDE8F08D0DF59D60414600F0E7F835
:102E10000DF59160594600F0E2F84A4E0DF58560D7
:102E20000DF59D61424623467E44B047F2A80DF55C
:102E300091615A462346CDF800B0B047DAA839462A
:102E40000DF591622346B047C2A829460DF59D6253
:102E50002346B047AAA807F16001F2AA2346B0476B
:102E600005F1600192AD0DF5856223460196284675
:102E7000B0470DF5F47BC2A9DAAA23465846FEF7FF
:102E8000ACFE62A82946AAAA2346FEF7A6FE58462B
:102E9000FFF71DFE50B162A8FFF719FE00284DD0C4
:102EA000504639462246FFF703FFA8E74AAF7AADFE
:102EB000224638462946FEF707FF32AEDDF804B059
:102EC00039462A4623463046D8471AADDAA93A464B
:102ED00023462846D84762A9504600F080F81A4F8A
:102EE00050465146324623467F44B84700F07AF8B0
:102EF00000F078F802AE2946524623463046B847DD
:102F00000AF1600562A9324623462846D847AAA995
:102F1000304632AA2346D847284629463246234619
:102F2000B8470AF1C0057AA9424623462846D84741
:102F3000009A284629462346D84760E75046FFF7BF
:102F4000B1FD5CE709EEFFFFEFECFFFF2DE9FC4D63
:102F5000CDE900230E460746FFF7A4FD0A9D4FF07A
:102F6000000B4FF0000A01988345A8BFBDE8FC8D17
:102F700000984FF0070810F80B40B8F1FF3F22DD32
:102F8000BAF1000F0FD0384639462A46FFF790FEB7
:102F900024FA08F0C00710D03846394632462B468E
:102FA000FFF712FF07E024FA08F0C00708D0384600
:102FB000314600F00BF84FF0010AA8F10108DCE7F8
:102FC0004FF0000AF9E70BF1010BCCE74FF49072D8
:102FD00005F094BC584659465A4623463047224687
:102FE000FEF772BE504651462A4623463847000037
:102FF0002DE9F04DADF6186D874D07460DF551687A
:103000008B46404639467D44A8470DF54E6607F18C
:1030100030013046A8470DF5546000F05BF992AEE0
:1030200007F160013046A84706F1300007F1900132
:10303000A8470DF1080A07F1C0015046A8470AF158
:10304000300007F1F001A8470DF53C6031465246CB
:103050005B46FFF77FFD0DF5306807F59071404640
:10306000A8470DF52D6607F5A8713046A8470DF560
:10307000336000F02FF96949694A6A4C0DF5246004
:103080005B4679447A447C44A0476749674A0DF51A
:103090001B665B46304679447A44A0476449654ADA
:1030A0000DF512655B46284679447A44A04762488C
:1030B0007844CDE9000B0DF500606049604A614B32
:1030C00079447A447B4400F0E3F85F480DF5DC6412
:1030D0007844CDE9000B20465C495D4A5D4B79445C
:1030E0007A447B4400F0D4F80DF5CA6807F5C07245
:1030F00031462023CDF800B04046FFF779FC0DF5AE
:10310000B8660DF5246142465B463046FFF790FBFA
:1031100007F5D072404629462023CDF800B0FFF7CE
:1031200067FC3046314642465B46FFF781FB0DF5B2
:10313000A66531465A462846FFF7C8FA0DF594664B
:103140000DF533615A463046FFF7C0FA0DF554606D
:10315000CDF89C64CDF89854CDF89044CDF800B0EB
:103160000DF294410DF591620323CDF894040DF511
:103170000060CDF88C040DF53C60CDF8880492AD6C
:10318000284600F017FA284629465A46FEF716F850
:103190000AF5F070CDF800AE00240DF560680DF56D
:1031A0005D66CDF8140E0AF5C070CDF8100E0AF564
:1031B0009070CDF80C0E0AF1C000CDF8080E0AF19F
:1031C0006000CDF8040E244D7D44062C18D058F82C
:1031D00024703046294600F0BCFC384631465A4639
:1031E00000F0AEFC05F13001304600F0B2FC07F112
:1031F000300031465A4600F0A3FC60350134E4E764
:1032000092A802A9FEF7E7F8002818BF01200DF6E2
:10321000186DBDE8F08D00BF490B0000DE5F0000B7
:103220000C600000D30100002A600000586000001C
:1032300078600000A660000060610000C0600000CF
:10324000EE6000001C61000000620000626100008E
:1032500090610000BE610000386100002DE9F0417E
:1032600098B00DF1300806461C461546404600F061
:1032700070FC6F462946384600F06BFC30464146EC
:103280003A462346FFF770F918B0BDE8F081000018
:103290002DE9F041B0B018AD0D4C80461E461746E2
:1032A00028467C44A04705F130003946A0476F46C8
:1032B00031463846A047369907F13000A047379B82
:1032C000404629463A46FFF745FC30B0BDE8F0815C
:1032D000AD080000414632465B46FFF745B90000A5
:1032E0002DE9F04DADF55C7D054608461C461646B9
:1032F0000F46FFF70DF918B93046FFF7E5FB38B177
:10330000284621460DF55C7DBDE8F04DFEF755B829
:10331000D0A8C4A93A46234600F058F8ACAF0DF542
:1033200014783246234638464146FFF737FC4CAE08
:1033300039463046FEF730FC06F160004146FEF7A4
:103340002BFC06F1C0002146FEF71AFC2846214658
:10335000FEF733F80DF110084FF03E0B08F1C007EF
:1033600008F1600A2846BBF1000F24D42946224602
:10337000FEF7A4F80094D0AA30464146C4AB00F052
:1033800085FF00F065FB10494FF480305A4605F088
:10339000BFF9C0070CD0D0A841460090C4A8CDE921
:1033A0000104ACAA304694AB01F046F800F050FBA3
:1033B000ABF1010BD6E729462246FEF71AF80DF5C8
:1033C0005C7DBDE8F08D00BF000001D270B51C46E9
:1033D0000D460646FFF7DEF830463146224600F03D
:1033E000AFFB284629462246BDE8704000F0A8BB46
:1033F0002DE9F04DADF55E7D049136AF01461446E2
:1034000038460D46FEF7C8FB584E0DF5467839464E
:10341000224640467E44B0470DF52E7A05F1600104
:1034200022465046CDE90251B04796A85146224661
:10343000B04705F1C00B1EA822465946B047374693
:103440007EAE4B4D36A95246234630467D44A847B2
:10345000304631462246AA46B84701973D46304697
:10346000314642462346434F7F44B84730463146B3
:1034700096AA2346B84700F0F3FA66AE41464246A4
:1034800023463046D0473046314642462346D04751
:103490004EA831462246A847374DDDF81080314608
:1034A00023467D444046059536AAA84706AEAEA9F8
:1034B000234630460A46D0474046414632462346D8
:1034C000B846B8477EA9304623460A46D047029DF3
:1034D0004EA9324623462846B847039F58465A46C7
:1034E00023463946D047019B5846594622469847BD
:1034F00058465946AEAA2346C047584659461EAAC2
:103500002346C04738467EA92A462346C04766A9B7
:10351000059D38463A462346A84796AE2346304690
:1035200031463246D04700F09BFA00F099FA38460F
:10353000394632462346C047DDF8108066A91EAFE3
:10354000059E23463A4608F160052846B0472846BE
:1035500029462246FEF74FFB08F1C00059463A467D
:103560002346B0470DF55E7DBDE8F08DB1E8FFFF65
:103570006FE7FFFF6FE7FFFF8FE7FFFF2DE9F041E8
:10358000984615460E460746FEF706FB069C07F1D1
:10359000600006F160012A462346FEF73CFC07F175
:1035A000C00006F1C00142462346BDE8F041FEF7E7
:1035B00032BC00002DE9F04DADF6983D09900DF5B7
:1035C000BF60CDE90C12DDF8B84B9B4600264FF0EA
:1035D0000008089300F5907007900DF6581000F160
:1035E000C00160300E90581E0F9106905E4500F0AD
:1035F000E6800D9850F826700C9850F82650284612
:10360000FEF786FF002840F0D8803846FFF75CFAC6
:10361000002840F0D28008EB480BCAA8234600EBF4
:103620000B120B92A6A800EB0B1110462A460A912A
:10363000FFF7CCFE0DF59B603A46234600EB4B1599
:10364000EEA800EB4B1A28465146FFF7A7FAA0A8B0
:103650000A9940F82810A3A80B9940F8281008EB05
:10366000C8000DF5BF6101EB401729463846FEF74B
:1036700093FA00F00FFA00F008FA08F10108B8F127
:10368000030F03D00698864240F095800DF6782708
:103690000DF5BF6022463946FFF7AAFE0DF6581514
:1036A000A09BA39A394600942846FFF767FF0DF1C7
:1036B000400B09980B96032E214638BF8346584687
:1036C000FDF77BFE0F980E9B59462A4600F0D8F96D
:1036D000079F012545451DD20DF67826384622461E
:1036E0003146FFF785FEA0A80DF6581A314650F86E
:1036F0002530A3A8009450F825205046FFF73EFF40
:103700000F980E9B5946524600F0BAF907F590778C
:103710000135DFE7A3AE0DF5BF610DF59B620096A5
:10372000A0A8CDE901080220CDE903045846294D9F
:10373000EEAB7D44A8470096A0AF03200DF5BF6A0D
:103740000DF59B62CDE90304CDE901785846514659
:10375000EEABA84709208DE8C00151460DF59B62EC
:10376000CDE903045846EEABA84720208DE8C00100
:1037700051460DF59B62CDE903045846EEABA847D0
:1037800010208DE8C00151460DF59B62CDE9030480
:103790005846EEABA847584659462246FDF729FE43
:1037A0000B9E032E05D3099810AA23460146FDF768
:1037B0002FFE4FF00008DDF820B0013616E758EA7A
:1037C0000B0003D109982146FDF7F7FD0DF6983D52
:1037D000BDE8F08DA30000002DE9F04DADF51A7D98
:1037E00009900AACDDE9A467984692460D4603911C
:1037F00004F1C000089004F160000790DDE9A240E8
:10380000CDE90540002E4FD0A69C0496284652468E
:103810004346009452AE314600F04CF806980DF144
:10382000280B314608C80690059804C800940590F6
:103830005846FFF7A3FE0898079B5A4600F015F973
:10384000049E08F160080AF1600A05F59075013ED2
:10385000D8E70998A69A013F06970146FDF72EFE84
:10386000DDE9A28B039FDDF890A2BAF1000F1AD018
:10387000A69C52AE384631462246FFF7B9FD5BF8AA
:10388000043B58F8042B00940AAD31462846FFF754
:1038900075FE0898079B2A4600F0E7F807F5907731
:1038A000AAF1010AE1E7069F002FD2D10DF51A7D9A
:1038B000BDE8F08D2DE9F04DADF5946DCDE9042115
:1038C00000F16001039383461D469046029120A8B3
:1038D000FEF762F95A4BDDF8C0640BF1C00A0DF532
:1038E0008864204651467B44324607939847F8A89F
:1038F000544F2146524633467F44B847E0A84146DC
:1039000022463346B847C8A82946F8AA3346B847DE
:10391000B8460197B0AF4C4CE0A95A4633463846FA
:103920007C44A047009498A8079B39463246254618
:10393000984780AC454F334620467F44069798A968
:103940000A46B8472046214622463346B84768A86B
:10395000B0A922463346C04750AFC8A920AA334673
:103960003846A847384639463A46069F3346B84750
:1039700038A8594622463346C04750A9079C5846A6
:103980003246A0475846594668AA3346A8470DF123
:10399000200838A9334640460A46B8475846594693
:1039A00042463346A84750465146B0AA3346B84728
:1039B000504651463246A047504651460DF5886262
:1039C0003346A8475046514698AA3346A847404632
:1039D00038A95A463346A847029C0DF5A07B019FA3
:1039E0004246334659462046B84720A9404668AA71
:1039F0003346B847069D4046414642463346A847AF
:103A0000009D00F038F8059C049A5946334620463C
:103A1000B8470399404652463346B84700F02BF862
:103A200004F1600059463246FEF7E5F804F1C000A3
:103A30005146FEF7B1F80DF5946DBDE8F08D00BF6D
:103A4000DFE3FFFF39E3FFFFB7E2FFFF81E2FFFFA4
:103A50002846294642465346CDE90074FDF774BD19
:103A600030463146324623465047CDE90004099896
:103A70000146FDF769BD20462146424633462847A8
:103A8000CDE900045846FDF75FBD07F1C0002146AF
:103A9000FEF776B807F160005146FEF77DB80521C4
:103AA000024631B102FB00F30139C3F102035A436C
:103AB000F7E7504270472DE9F04198B030220D46AB
:103AC000804604F01BFF2868FFF7E9FF08F1640651
:103AD000C8F830003021304604F01AFF0CAF2C211A
:103AE000381D04F015FF01204FF4C0740C903CB158
:103AF000384639463A462B4600F0B4FA013CF6E720
:103B00000CAF30463022394604F0F8FE6E46394696
:103B10003022304604F0F2FE4FF4C0743CB130461F
:103B2000314632462B4600F09DFA013CF6E708F19B
:103B300034006946302204F0E1FE18B0BDE8F0819F
:103B4000E0B51346126B009203F1340200F0E2F884
:103B50008CBD70B5002212F1300308BF70BD8B1808
:103B6000043A93F82D5093F82C4093F82E6093F874
:103B70002F302D0445EA046444EA0624234408C097
:103B8000E9E710B5002212F1300308BF10BDCC7870
:103B90008318043A83F82C404C8883F82D400C6835
:103BA000240A83F82E4010C983F82F40EBE7B0B504
:103BB000002200230C2B07D050F8234051F823504B
:103BC00001336C402243F5E7B2FA82F04009B0BD00
:103BD00080B5302104F09CFE80BDF0B58DB001AF02
:103BE0000D46064630211446384604F091FE304614
:103BF00039462A46234600F0AFFA0DB0F0BD2DE954
:103C0000FF4D0C9DCDE902230E463022074605F1FB
:103C1000640104F073FE4FF0000B4FF0000A0398AC
:103C20008345A8BFBDE8FF8D02984FF0070810F844
:103C30000B40B8F1FF3F26DDBAF1000F12D02B6B1D
:103C4000384639462A4600F005FA24FA08F0C0073B
:103C500013D0286B394632462B460090384600F088
:103C600059F808E024FA08F0C00709D03846314670
:103C7000302204F043FE4FF0010AA8F10108D8E712
:103C80004FF0000AF9E70BF1010BC8E7F0B599B066
:103C90000DAF0C460546164611463022384604F054
:103CA0002DFE4FF0FF326FF0010100200C280AD0EA
:103CB00057F82030C91847F8201042F100010130B0
:103CC000C9170A46F2E701AF0DA93846FFF759FFB9
:103CD000284621463A4630230096FFF790FF19B058
:103CE000F0BD000010B5084C19F8040040B90748B1
:103CF000074948447944FFF7DEFE012009F8040033
:103D00000248484410BD00BF000F00006C0E0000C8
:103D10004C58000000F000B82DE9F04F93B00D9022
:103D20000E910F9210931C9811900020009001901A
:103D300002900390049005900690079008900990D7
:103D40000A900B900C9012900F98129950F821B095
:103D50000E995FF0000C0868009CA0FB0B0E001988
:103D60005EF1000E10EB0C005EF1000C0090486854
:103D7000019CA0FB0B0E00195EF1000E10EB0C0075
:103D80005EF1000C01908868029CA0FB0B0E0019EC
:103D90005EF1000E10EB0C005EF1000C0290C868A2
:103DA000039CA0FB0B0E00195EF1000E10EB0C0043
:103DB0005EF1000C03900869049CA0FB0B0E001937
:103DC0005EF1000E10EB0C005EF1000C04904869EF
:103DD000059CA0FB0B0E00195EF1000E10EB0C0011
:103DE0005EF1000C05908869069CA0FB0B0E001983
:103DF0005EF1000E10EB0C005EF1000C0690C8693D
:103E0000079CA0FB0B0E00195EF1000E10EB0C00DE
:103E10005EF1000C0790086A089CA0FB0B0E0019CD
:103E20005EF1000E10EB0C005EF1000C0890486A89
:103E3000099CA0FB0B0E00195EF1000E10EB0C00AC
:103E40005EF1000C0990886A0A9CA0FB0B0E001919
:103E50005EF1000E10EB0C005EF1000C0A90C86AD7
:103E60000B9CA0FB0B0E00195EF1000E10EB0C007A
:103E70005EF1000C0B900C9810EB0C00002454F138
:103E800000040C900098119D00FB05FB109B1D6821
:103E9000ABFB05CE10EB0C0C5EF1000C5D680198DD
:103EA000ABFB056E86195EF1000E16EB0C065EF19B
:103EB000000C00969D680298ABFB056E86195EF1BA
:103EC000000E16EB0C065EF1000C0196DD680398FF
:103ED000ABFB056E86195EF1000E16EB0C065EF16B
:103EE000000C02961D690498ABFB056E86195EF105
:103EF000000E16EB0C065EF1000C03965D6905984A
:103F0000ABFB056E86195EF1000E16EB0C065EF13A
:103F1000000C04969D690698ABFB056E86195EF150
:103F2000000E16EB0C065EF1000C0596DD69079895
:103F3000ABFB056E86195EF1000E16EB0C065EF10A
:103F4000000C06961D6A0898ABFB056E86195EF19B
:103F5000000E16EB0C065EF1000C07965D6A0998E0
:103F6000ABFB056E86195EF1000E16EB0C065EF1DA
:103F7000000C08969D6A0A98ABFB056E86195EF1E7
:103F8000000E16EB0C065EF1000C0996DD6A0B982C
:103F9000ABFB056E86195EF1000E16EB0C065EF1AA
:103FA000000C0A960C9810EB0C0054F1000C0B90CE
:103FB000CDF830C01298401C12900C287FF4C4AE8B
:103FC000109B0D9E00981968401A3060019859683E
:103FD00088417060029899688841B0600398D968F8
:103FE0008841F060049819698841306105985969E1
:103FF00088417061069899698841B0610798D969CC
:104000008841F0610898196A884130620998596AB4
:10401000884170620A98996A8841B0620B98D96A9F
:104020008841F0620C9870F10000002161F10001FC
:104030006F4600243859355925EA010500EA010088
:1040400040EA05003051241D302CF3D113B0BDE8F7
:10405000F08F00BF00B508B413460A46FFF75CFEB8
:1040600001B000BDF0B50C681568641904604C68B7
:1040700055686C4144608C6895686C418460CC687C
:10408000D5686C41C4600C6915696C4104614C6968
:1040900055696C4144618C6995696C418461CC6956
:1040A000D5696C41C4610C6A156A6C4104624C6A42
:1040B000556A6C4144628C6A956A6C418462CC6A30
:1040C000D56A6C41C462002555F100058CB00468C6
:1040D0001E68A41B009444685E68B441019484681F
:1040E0009E68B4410294C468DE68B44103940469D4
:1040F0001E69B441049444695E69B44105948469BD
:104100009E69B4410694C469DE69B4410794046AA7
:104110001E6AB4410894446A5E6AB4410994846A90
:104120009E6AB4410A94C46ADE6AB4410B9475F184
:104130000005002161F100016F4600243D59065938
:1041400025EA010506EA010645EA06050551241D92
:10415000302CF3D10CB0F0BDF0B50C681568641BC1
:1041600004604C685568AC4144608C689568AC410B
:104170008460CC68D568AC41C4600C691569AC41F9
:1041800004614C695569AC4144618C699569AC41E5
:104190008461CC69D569AC41C4610C6A156AAC41D3
:1041A00004624C6A556AAC4144628C6A956AAC41BF
:1041B0008462CC6AD56AAC41C462002464F1000414
:1041C00005681E6806EA0406AD19056045685E6864
:1041D00006EA04067541456085689E6806EA04069D
:1041E00075418560C568DE6806EA04067541C560EC
:1041F00005691E6906EA04067541056145695E693F
:1042000006EA04067541456185699E6906EA040669
:1042100075418561C569DE6906EA04067541C561B7
:10422000056A1E6A06EA040675410562456A5E6A09
:1042300006EA040675414562856A9E6A06EA040636
:1042400075418562C56ADE6A06EA04067541C56283
:10425000F0BD00BF00B58DB00C9300230193029315
:1042600003930493059306930793089309930A9382
:104270000B930123009313466A46DDF830C04DF8D6
:1042800004CDFFF749FD01B00DB000BD2DE9F04DA3
:10429000ADF5607D0DF1E00A07910146CDE90332ED
:1042A00050460C46FDF778FCC8A85F4DE89E514685
:1042B0007D443246A8470DF5307B04F1600132465B
:1042C0005846CDE90141A84798A859463246A84723
:1042D00004F1C00820A832464146A847059580AFA2
:1042E000524C51465A46334638467C44A0473846DD
:1042F00039463246A8474E4D38463946C8AA334655
:104300007D44A8473846394698AA3346A8473846D8
:1043100039463A463346A047C8A90DF5D07A334608
:1043200050460A460F46A047504651463A46334645
:10433000A04750A8059B51463246A34698473D4F9B
:10434000079C514633467F442046069738AAB84713
:1043500008AFB0A9334638460A46D847204621461A
:104360003A463346AA46A84780A9384633460A4605
:10437000D847019C50A93A4633462046A847029D9B
:104380004046424633462946D847059B404641466B
:104390003246984740464146B0AA3346D047404649
:1043A000414620AA3346D047284680A922463346B4
:1043B000D04768A9069C28462A463346A04798AFAE
:1043C0003346384639463A46D84700F016F900F0E9
:1043D00014F9284629463A463346D04720AC0DF119
:1043E000200A069D4146334650462246A847079F6D
:1043F000039A5146334607F1C000FDF70CFD5046C5
:1044000068A922463346A847504651463246FDF732
:10441000F2FB049A07F1600051463346FDF7FBFCBE
:104420000DF5607DBDE8F08D15DAFFFFD1D8FFFFF7
:10443000D7D8FFFFEBD8FFFF2DE9F04DADF5956D17
:10444000CDE9062100F160010593834698461746A1
:10445000049122A8FDF7A0FB0BF1C006DDF8D0A463
:104460000DF589640896204631465D4B52467B44E3
:1044700009939847FAA85B4D2146324653467D443E
:10448000A847E2A8394622465346A847CAA841464B
:10449000FAAA5346A847B2AF534C5A465346384639
:1044A0007C440194E2A9A0470DF51A78099B39468E
:1044B00052464046984782AF4C4C4146424653468E
:1044C00038467C44A047384639463A465346A047CA
:1044D0006AA8B2A93A4653460395A84752AECAA95C
:1044E00022AADDF8048053463046C04730463146A4
:1044F00032465346A0473AA859463A465346A8473B
:1045000052A9099F58465246B847584659466AAA82
:1045100053464546C0473AA90DF128085346029430
:1045200040460A46A0475846594642465346A84781
:10453000089EB2AA534630463146A047304631461F
:104540005246B847304631460DF589625346A84772
:10455000304631469AAA5346A84740463AA95A4699
:104560005346A847049F0DF5A47B039C424653463F
:1045700059463846A04722A940466AAA5346A04752
:10458000029E4046414642465346B04700F030F84E
:10459000079F069A594653463846A047089E0599F4
:1045A000404653463246A04700F022F8404659465E
:1045B0005246FDF720FBDDF8C82407F160004146B4
:1045C0005346FDF728FCDDF8CC2407F1C000314646
:1045D0005346FDF720FC0DF5956DBDE8F08D00BF4D
:1045E00057D8FFFFB3D7FFFF37D7FFFFF9D6FFFF3D
:1045F00038463946424653462847384639463A46B1
:1046000033465847F0B59DB01546229AC8B3C1B39A
:10461000BDB31C46ABB30AB1002111700178B029BB
:1046200031D14178A72931D0062936D0012931D19D
:10463000817879BBC07868BB20680021216003289D
:1046400021D30126C71E26602E7020683A1A2844FE
:10465000411C012003F0F8FF00F03FF820603A1AF7
:104660002844411C022003F0EFFF00F036F8411C03
:1046700021602E5403F0E0FF21684A1C2260685438
:1046800028E014781EE046F685141BE0817809B90D
:10469000C078D0B14FF4DC4414E00021216083786D
:1046A000027902ADCDE90015411D1846002303F043
:1046B00097FF044628466C2104F038F9002C08BF07
:1046C0004FF4104420461DB0F0BD002020600AB118
:1046D000012010704FF41044F4E721684A1C226056
:1046E000685421680844704780B5C078202807D1F5
:1046F000012003F098FB03F0A5FB03F08AFB0021E7
:10470000084680BDB0B50A4601460648002300258C
:1047100009EB0004607803F0C1FF03496570494468
:104720008D71B0BD2C11000024110000FEB5664E45
:1047300000210546002201238DF80B1040F21111D3
:1047400009EB060003F0B6FF04460128C0F2AB8077
:1047500019F80600A0F11001162905D8012202FA65
:1047600001F15A4A114206D1411E022967D330286D
:1047700018BF402877D1564F09EB0701487003F066
:104780003FFFAA2803D103F044FFAA2845D109EB33
:1047900006004078B0282CD140F21110611E019023
:1047A0000DF10B0000904B4801AB09EB000509EB44
:1047B000060001302A46FFF725FF0024019909EB86
:1047C0000706B0F5104F18BF2146020A00236A54AD
:1047D0006A185070881C2946019082B2707803F0E4
:1047E0005DFF9DF80B10747001296AD000EAE07437
:1047F00059E009EB07004078102843D0402843D007
:10480000212843D0222837D0232837D0302837D04A
:10481000202814BF0020012039E02E485521022213
:10482000002309F8001009EB00011520487009EB7E
:104830000700407803B0BDE8F04003F02FBF274FDA
:104840004E44013C711C224609EB070004F056F867
:1048500070781A280AD109EB0700214603B0BDE899
:10486000F040FFF741BF42281DD028E0EDB1002005
:10487000002403F0D7F816E0042008E0072006E043
:10488000022004E0062002E0032000E00520124997
:10489000013C2246494488710E4809EB060101316A
:1048A000484404F02BF82046FEBD19F807001528EF
:1048B000DDD8012101FA00F009490842D7D00024CF
:1048C000F1E7FF2003F0CCFE1210000001007F0092
:1048D0002C110000010F000024110000AC12000098
:1048E0002050200070B58AB00B4D0026182109EB2E
:1048F0000500467001AC204604F00AF81120ADF81E
:104900002460ADF81C00204603F0B4FE012009F835
:1049100005000AB070BD00BF2C11000070B505463F
:10492000007848B1194809EB00018A7B52B148442C
:10493000817E51B1002426E0144809EB00040020D8
:10494000A07004E001F10C0401E000F11804002063
:104950002646A060206046F8040F686803F0E8FD72
:10496000A060287805F108022070094B7B4420B133
:104970003046072103F061FA04E03046072103F0D6
:1049800057FA00206070204670BD00BF3011000053
:1049900025000000B0B590F83E20114802235C1CB1
:1049A0001DD0DCB209EB000504EB440405EB8405E3
:1049B0006D78AA4205D109EB000505EB8405AD78B9
:1049C0000DB9013BEBE709EB000202EB84029268B0
:1049D0002AB1484400EB8400BDE8B0401047B0BDA8
:1049E0003011000070B500284DD00D4649780446BE
:1049F000C80722D06178022003F033FA2A78697858
:104A0000234B244E002A7B447E44024608BF1E46A8
:104A100002F8216F330ED370330C9370320A80F892
:104A200022206268A37842F823000322C27704227E
:104A3000827500224272581CA07088074FF0000651
:104A400023D56178022003F00CFA2978124A134B1F
:104A500000297A447B44014608BF134601F8213FF0
:104A60001A0E4672CA701A0C8A70190A80F822103F
:104A70006168A27841F822000321C177062181757F
:104A8000501CA07001E04FF0FF36304670BD00BFF3
:104A9000044100001E410000C6400000A840000084
:104AA000002800F043812DE9F04D88B00E46417892
:104AB0000546012017461C4603F0D3F98046032023
:104AC000002F08BF0120697888F8200003F0CEF994
:104AD0004146020E4FF0720A4FF0000B049701F8A6
:104AE000220F88F804A088F805B0CA70020C000AEA
:104AF00088F823008A700420697803F0B2F9074629
:104B00000320F877304603F013FD0146082087F8AC
:104B100005B087F804A00394002C08BF0A2087F88A
:104B2000220005220B0E87F820203A4602F8261FA5
:104B3000D3700B0C93700A0A012387F82720722286
:104B400003F0A8F90646052805951DD33E46042026
:104B500001210DF11E0516F826CF7278B378F4788E
:104B600006F8010C16F8040C01910095059D4CEA1D
:104B7000022143EA0422042300F078FCBDF81E0061
:104B80003071000A7071042600F078FC8346C07909
:104B900097F82410049C06FB00FA41F001014FEA4B
:104BA0001A2087F82410022187F806A0F8714046E1
:104BB000B975002C10F8221F42788378C07841EA3A
:104BC000022143EA002041EA0040076000F0108122
:104BD00003986978022840F0AB800520052503F092
:104BE00040F90026074680F821600120ADF81A60E0
:104BF000ADF8186000F051FC204603F099FC014626
:104C00000E20FE71BD75B87108200A0E87F82300CA
:104C1000384600F8251F00F020FC652840F2D880B7
:104C2000BB4697F8265097F8230001241BF8251F50
:104C30009BF802209BF8033041EA052106AECDE93E
:104C4000006442EA03220DF11A0341EA024166229E
:104C500003F01BF9BDF81800BDF81A600C3038716C
:104C6000000A78716D48132E28BF13269BF8001098
:104C70009BF802209BF8033009EB000497F826000C
:104C800041EA002042EA0321324640EA014120463F
:104C900003F034FE00252046A55503F049FC012110
:104CA0008BF80000BD76059D7976010E8BF8031018
:104CB000010C000A87F826008BF80210404610F815
:104CC000221F42788378C07841EA022143EA00201B
:104CD00041EA00404760BDF81800002800F08680D7
:104CE00069780520052603F0BCF80025074680F802
:104CF0002150012000F0D1FB049803F019FC0E2193
:104D0000FD71B971082187F82310BDF81A1001440C
:104D1000384600F8251F0A0E00F09FFB0C300F21CB
:104D2000BE753871000A7871022057E000F0B2BBFE
:104D300000F0A1FB03260746C677204603F0F8FBE8
:104D4000014672200024012338710A200A0E7C716A
:104D500087F8220000F061FB04281ED33D4615F8B9
:104D600026CF05F8016C15F8040C95F801E0AB7836
:104D7000E97807AA00920122019243EA01214CEA54
:104D80000E22032342EA0141722203F092F8BDF899
:104D90001C002871000A687103200399002908BFCC
:104DA00006469BF80700BC76BC7506FB00F106FBC7
:104DB00000A0B971090AF971022100F1020A79769D
:104DC000052187F82010414600F03AFB4F600FE0C4
:104DD0000C3008213871000A7871012000227976A0
:104DE0004146BA7600F02CFB41F820700AF12C0AFB
:104DF0006868A978052288F816204FEA1A2240F838
:104E000021800020013188F806A088F8072088F862
:104E10001F00A97008B0BDE8F08D00BF541100005C
:104E200000284FD02DE9F04D0C46054600274FF0E5
:104E3000050B4FF003084FF0000A207982453ED25F
:104E40006079032802D3811E514535DC023050457C
:104E500032D3697800F00FFB216806465FFA8AF0CA
:104E6000884761790A228A4508BF082286F82220ED
:104E7000F771777186F820B086F8217086F816B041
:104E800086F81F803246030E02F8260FD370030CFB
:104E9000000A937086F827006868AA7840F82260B4
:104EA0000C20B07172203071AAEB010001090001E1
:104EB0007076501CB176A8700AF1010ABDE7002097
:104EC000BDE8F08D00F0E6BA002800F0DC802DE9A6
:104ED000F04D86B00D4641788246012002F0C1FFB8
:104EE0009AF8011080460320032702F0BFFF4146D5
:104EF000020E4FF0000B049501F8220F88F820B045
:104F0000CA70020C000A8A7088F82300A868C0B32F
:104F10009AF80110022002F0A4FF0646C777A8689D
:104F200003F006FB3146020E86F813B086F809B08E
:104F300001F8210FCA70020C8A70010A86F822104B
:104F4000314601F812BF81F803B081F802B0414642
:104F500011F8222F4F788C78CD7811F8023C44EA72
:104F6000052442EA0722049D42EA044242F82360F3
:104F70000222B2755A1C01F8022C8178C07841EAED
:104F8000002B2868002800F0A5809AF8011000F096
:104F900072FA07460320F877286803F0C9FA014639
:104FA00072200024387105200A0E7C7187F82000D9
:104FB000384600F8261FC2700A0C8270080A87F86B
:104FC000270097F824006A7B40F0010087F824004E
:104FD0000820002A08BF0A2087F822007222012335
:104FE00002F058FF064605281ED33D460420012145
:104FF0000DF1160415F826CF6A78AB78EE7805F82F
:10500000010C15F8040C0191009400244CEA0221D3
:1050100043EA0622042300F029FABDF8160004260C
:105020002871000A6871049D00F028FAC07987F899
:1050300021407043010AB871F971A96829B341464A
:1050400011F8222F4C7811F8023C8D78C97842EA89
:10505000042245EA012142EA01413A4601EB83017B
:1050600051F8041C02F8121F0B0ED3700B0C090A26
:105070005170002193701172032E38BF01218900F5
:10508000D17108210AE000F005BA696819B100F091
:10509000F9F9022102E000F0F5F90521117141460C
:1050A000584411F8222F4C788D78CE7811F8023CB4
:1050B00042EA042245EA0624049D42EA044242F8F8
:1050C00023705A1C01F8022C797EBA7E41EA022133
:1050D00000EB010B6868002871D09AF801100420D9
:1050E000CDF80CA002F0BDFE03240746C477686823
:1050F00003F01EFA014600200123787172200A0E87
:1051000038710A2087F82200052087F8200000F077
:1051100084F9824604281CD33D464FF0010C15F853
:10512000261F05F8014C6A78AB78EC7815F8040C6A
:1051300005AECDE9006C41EA022143EA04220323D3
:1051400000F094F9BDF814004FF0030A2871000A2A
:10515000687100F093F9414611F8223F4C788D7840
:10516000CE7811F8022C43EA042345EA06243D4692
:1051700043EA044303EB820454F8044C05F8124F4D
:10518000260EEE70260C240AFC74AE7043F82270D2
:105190000223002401327B760823BC7687F8214065
:1051A000C079BB750AFB00F30AFB00B0DDE903A57B
:1051B000BB711B0A01F8022C00F1020BFB71287B6A
:1051C0000221002808BF052188F81610DAF804002B
:1051D0009AF80210722240F82180002088F80420FA
:1051E0004FEA1B22013188F806B088F8190088F8C8
:1051F0001A0088F8050088F81F0088F807208AF848
:10520000021006B0BDE8F08D2DE9F845002800F049
:1052100084800D464178044600F02DF94FF00308D4
:10522000064680F81F80286803F082F90146722044
:1052300000270123307108200A0E777186F82200BA
:10524000052086F82000304600F8261FC2700A0CA0
:105250008270080A722286F8270096F8240040F02F
:10526000010086F82400082002F014FE012854D81A
:1052700096F8220002F004FE6168A278B776F77112
:1052800041F82260B071022086F81980B075501C78
:10529000A070686800284ED0617800F0ECF80646EF
:1052A0000320F077686803F043F9722137464FF026
:1052B00000084FF0050A31710A2107F8260F86F819
:1052C000058086F820A086F82210010EF970010CE6
:1052D000000A86F827000A20B97002F0D1FDC10942
:1052E00096F82720BB784000F17196F82410B07131
:1052F00096F8220041F0010186F824103978FF78F1
:1053000041EA022143EA07220123012741EA02413F
:10531000722202F0BFFD022802D94FF0FF365CE096
:105320006068A17886F81A8086F816A040F8216097
:10533000481C7776A0706178052002F092FD002667
:1053400007464FF0030A4FF0080880F8216001205B
:1053500087F820A087F81FA087F8238087F822000D
:10536000287A1F4A1F4901287A44794408BF114608
:105370003A460B0E02F8251FD3700B0C93700A0AE5
:1053800087F8262001283846174A184D7A447D446C
:1053900018BF2A4600F82E2F130EC370130C83700B
:1053A000100A87F82F00082002F07EFD6168A278BD
:1053B0006B78BE76FE7187F8168041F822700C215A
:1053C00087F819A0B971297841EA03210844511CD2
:1053D0000A303871000AA17078713046BDE8F8854E
:1053E0005C390000303A0000F9360000E136000078
:1053F00020B180B502F026FD002080BD00F04AB843
:1054000048B110B50446007810B1607802F01FFD75
:105410000020A07010BD00F03DB8384600F8261FEF
:10542000C2700A0C8270080A722287F8270097F867
:10543000240040F0010087F824000A2002F02ABD71
:1054400011F8222F4B788D78C97845EA012142EA7C
:105450000322059D42EA01417047C2700A0C827026
:10546000080A87F82600082002F01EBD41EA024122
:10547000722202F01EBD042002F0F3BC97F8220055
:1054800002F0F9BC00213A4602F8121FD170917067
:10549000517070474FF0FF30704787F822000320AB
:1054A00087F82000F87770472DE9F8450E460A99ED
:1054B000054600209A46174600F030F848B3DDF85C
:1054C0002080044646610FB100F0E1FA0A20B8F1ED
:1054D000000F19BF4146032251460422722302F0F5
:1054E000DEFC099920702A0746BF01386070607899
:1054F000C4F80C80C4F804A084F83010C5F38011FF
:10550000617405F003012174C1B2204600F02CF84B
:1055100000E000242046BDE8F885000070B5044690
:1055200010480D4651B1002190290AD009EB000224
:105530000A44D2F8882032B14831F5E709EB000679
:1055400005E000260BE04844084400F148063046D8
:10555000482103F0DDF986F8455086F8444030468E
:1055600070BD00BF681100002DE9F04591B0044600
:1055700040780E4688421CD2A568207866700138B3
:10558000B04231DDE0680121032308AACDE9002102
:105590002946002808BF04230A20722202F089FC51
:1055A000BDF820106818A060695C0A291ED101307E
:1055B0001BE0E568002D74D000274FF001080DF1C5
:1055C000200ABE42D9D020780138B8420ADD0A202C
:1055D000294672220323CDE900A802F06AFCBDF837
:1055E000200005440137ECE70020A0604F4804F19B
:1055F0003402784404900020ADF80A0094F8450085
:105600008DF80C0007CA05AB07C303A8FFF786F99E
:10561000277894F801A006462064207C394652463B
:1056200000F0FCF880468DF80B00E06888B1012F8F
:1056300015D16168082072220023002602F02AFC9E
:10564000022848D36168182004F11802CDE900202F
:1056500021E094F8303030462946002255E00AF126
:10566000010063682421CDE9000708AF304A3846BD
:105670007A4402F03FFC08203946722200234FF0A2
:10568000000A02F007FC04F1180C02282CD31820A1
:10569000CDE900C008A908207222012302F00EFC07
:1056A0002DE0656800274FF001080DF1200ABE4289
:1056B0003FF463AF20780138B8420ADD0A2029465A
:1056C00072220423CDE900A802F0F3FBBDF820000C
:1056D00005440137EBE7616804F11800172203F075
:1056E0000DF984F82F600AE04FCFACE84F0084F842
:1056F0002FA03888ACF80000B8788CF8020094F835
:105700003030206C04F118012A46FFF7C9F9B8F1CE
:10571000000F04D0206C0DF10A01FFF763F900F0CF
:10572000E9F902F076FB11B0BDE8F085BB0100009D
:105730004E3500002DE9F04587B00D46824602A89F
:1057400000F0D3F919480E99784400F0C5F968B112
:10575000044645610FB100F053F900F0CEF907D0CF
:10576000022807D0012808D1022004E0002418E014
:10577000032000E00120002500E000208DF8070054
:1057800002A8FFF7CBF841462064FFF79DFB25B93F
:10579000206C0DF10601FFF725F900F0ABF902F0DE
:1057A00038FB204607B0BDE8F08500BF650000006B
:1057B00010B50C4600F0F0F878B3042C06D0012C9C
:1057C00008D054BB4178D9B1013909E0426922B30C
:1057D00004211FE002784178013A8A4205DD013157
:1057E000C9B2BDE81040FFF7BFBE017C41F0020125
:1057F000032901D0417C81B1426972B1012109E0E4
:10580000017C01F0FE01022901D0417C29B14269ED
:105810001AB10021BDE81040104710BD034602290F
:1058200008D301391046002A18BF0120914288BFD1
:10583000023000E00020032B0AD0022B04BF40F00E
:1058400001007047012B04BF40F002007047704711
:1058500003207047F8B50F46064602201946154644
:10586000FFF75CFE70B104460FB100F010F9287923
:105870002072687960722868C4E90060204600F0F0
:1058800005F800E000242046F8BD0000B0B586B061
:1058900004460020019004F1340219487844029033
:1058A00094F845008DF8040007CA03AB07C301A8AC
:1058B000FFF734F8251D20642946FFF7B1FA207A56
:1058C000022816D30121ADF80210697900290A4691
:1058D00018BF012201388DF80320884203D9901C9B
:1058E0008DF8030000E021B1206C0DF10201FFF7FB
:1058F00079F800F0FFF802F08CFA06B0B0BD00BFF6
:10590000210100002DE9F04587B00D46824602A82E
:1059100000F0EBF819480E99784400F0DDF868B112
:10592000044645610FB100F06BF800F0E6F807D0CF
:10593000022807D0012808D1022004E0002418E042
:10594000032000E00120002500E000208DF8070082
:1059500002A8FEF7E3FF41462064FFF755FC25B996
:10596000206C0DF10601FFF73DF800F0C3F802F0DE
:1059700050FA204607B0BDE8F08500BF95FEFFFF56
:1059800038B110B50446006CFFF73AFD00212164E0
:1059900010BD4FF0FF307047084A0021D82904BFDE
:1059A0000020704709EB02030B441B6C834201D0BB
:1059B0004831F3E709EB0200084470476811000022
:1059C00010B50C46FFF7E8FFC8B1042C06D0012C37
:1059D0000AD0A4B9417A91B101390BE0417A026849
:1059E0000846BDE810401047027A417A013A8A42DF
:1059F00005DD01314172BDE81040FFF747BF10BD22
:105A000038787978BA78FB7842EA032240EA0120B4
:105A100040EA02406063384610F8082F797A42EA7B
:105A200001218278C37842EA032241EA0241E1631C
:105A3000394611F8043F7A7943EA02228B78CD780F
:105A400043EA052342EA0342A2633A787B78BD78B1
:105A5000FE7842EA032245EA0625037842EA054237
:105A60008578C07804927A7A45EA002043EA0222D7
:105A70008B7842EA00400A78C9780690787943EA40
:105A8000012142EA002040EA014005907047387841
:105A90007978BA78FB7840EA012042EA0322394655
:105AA00040EA024011F8082F6063787A42EA002049
:105AB0008A78C97842EA012140EA0140E0637879B6
:105AC00017F8041F41EA0020B978FA7841EA022168
:105AD00040EA0140A06370478DF808100390002051
